:020000040800F2
:10000000A071002045010008590400085B040008A5
:100010005F04000863040008670400080000000093
:100020000000000000000000000000006B04000859
:100030006D040008000000006F040008710400084F
:100040005F0100085F0100085F0100085F01000810
:100050005F0100085F0100085F0100085F01000800
:100060005F0100085F0100085F010008636F00087E
:100070005F0100085F0100085F0100085F010008E0
:100080005F0100085F0100085F0100085F010008D0
:100090005F0100085F0100085F0100085F010008C0
:1000A0005F0100085F0100085F0100085F010008B0
:1000B000EF040008C70600085F0100085F010008A0
:1000C0005F0100085F0100085F0100085F01000890
:1000D0005F010008A3860008598700087304000820
:1000E0005F0100085F0100085F0100085F01000870
:1000F000396F00085F0100085F0100085F01000818
:100100005F0100085F0100085F0100085F0100084F
:10011000657C00085F0100085F010008990800087D
:100120005F0100085F0100085F0100085F0100082F
:10013000DFF80CD00BF026FF00480047F302000860
:10014000A07100200648804706480047FEE7FEE70A
:10015000FEE7FEE7FEE7FEE7FEE7FEE7FEE7FEE777
:10016000FB8E00083101000810B59A48007828B1CC
:1001700006F0BCFC00209749087009E00020964971
:1001800008769649087606F02FFD012006F02CFD32
:100190009148407E022811D19048407E02280DD11E
:1001A0008F48007828B98D4A11698B4A106903F08D
:1001B00055F80020884948768849487610BD10B522
:1001C000012006F0E3F88021864809F0C2FE4FF4D2
:1001D0000071844809F0BDFE0E20834908601B2091
:1001E000824908600120824908607F4800684FF416
:1001F000616148437D490968C1EB011100EB810051
:100200007B49096808447B49086001207A490870E5
:1002100000207A49087007F078FB002078490870C0
:100220000220784908700020774908700321774838
:1002300009F091FE00207649086076490860764909
:100240000860764908604FF48051754809F081FED6
:100250004FF40071724809F07EFE4FF480417048FF
:1002600009F079FE4FF400616D4809F072FE4FF419
:1002700080616B4809F06FFE4FF48071684809F0A7
:100280006AFE0122114690070AF021FD0122114663
:1002900064480AF01CFD102063490880012063496E
:1002A0000880634800694C494861614840694B498E
:1002B00048610020484948764849487646490876CA
:1002C000464908760120434908705A4908705A493E
:1002D000087000205949086008F09EFA012058492A
:1002E000086000205749086057490860574908606E
:1002F00010BD00203A4908704FF4806008F07EFE7F
:1003000006F0E1FF00F09BFA07F01AF800F0BEF8E3
:1003100000F0A9F906F0AAFB07F035F906F086FD12
:10032000FFF74DFF02F0C2F9FFF71EFF02F013FCCA
:100330004FE040480078152834D2DFE800F00B0C7D
:100340001215181B1E2124272A2D33333333333340
:100350003333300000BF01203D49087000F072FEC9
:1003600021E000F074FF1EE001F0F6FA1BE001F05E
:1003700030FB18E001F080FC15E001F0D0FF12E046
:1003800002F0F9F90FE002F0F1FA0CE002F04AFB9A
:1003900009E002F0CCFD06E001F09CFB03E000F078
:1003A000C2FF00E000BF00BFFFF7DEFE05F04EFC1D
:1003B00005F081F92148006838B908F02DFA254880
:1003C000007810B905202349087007F00BFF07F0EB
:1003D0007FFDAEE77C00002094050020B0050020E2
:1003E0007D000020001001408C00002090000020C3
:1003F00094000020880000207E0000207F00002064
:10040000340000203300002046000020001401408A
:10041000680000206C0000205C00002060000020CC
:1004200000180140000400407A00002078000020FD
:10043000CC050020BC000020BD000020980000205A
:10044000E00000205408002098090020DC0A002069
:10045000000000202E000020704700BFFEE700BF14
:10046000FEE700BFFEE700BFFEE77047704770473A
:10047000704710B540F2255103480BF0ABF810B1AE
:1004800001480BF027F810BD004800401FB50121BE
:10049000084609F07AFF40F2CF20ADF8040064204E
:1004A000ADF808000020ADF80A00ADF8060001A97B
:1004B0004FF080400AF094F81C208DF800000020D6
:1004C0008DF8010001208DF802008DF803006846C8
:1004D00008F099FD0022012188070AF0F8FB0121AC
:1004E00088070AF0D9FB0020FE4908601FBD10B53F
:1004F000012188070AF099FE00283ED0FA480068DA
:10050000B8B9FA480078A0B1F9480068F949096813
:1005100088420ED00120F4490860F2490860322078
:10052000F54908600846008881B24FF080400AF023
:1005300049FEEC480068012820D10020E949086004
:100540004FF48051ED4809F004FDED480078012892
:1005500013D1EC480078012802D002280CD105E024
:10056000E3480068401CE249086006E0E048006893
:10057000401EDF49086000E000BF6FE00120D9495C
:100580000860DB480068DB490968884244D0D848E5
:100590000068D8490968884203DD0120DA490880EB
:1005A00002E00220D8490880D748008870B3D648B6
:1005B0000088012812D18103D04809F0CCFC4FF407
:1005C0000071CE4809F0C5FC4FF48051CB4809F0CA
:1005D000C2FCC8480068401CC6490860CA48008878
:1005E00002283BD14103C54809F0B3FC4FF4007128
:1005F000C24809F0AEFC4FF48051C04809F0ABFC92
:10060000BC480068401EBB49086027E04FF40071F9
:10061000BA4809F09EFC21E00020BB490880B3499C
:100620000870B1480068012811D10020AE49086067
:10063000B648007E38B9B548407E012803D1022073
:10064000B24948760AE00020B049487606E0AF4853
:10065000407E012802D10220AC494876012188075A
:100660000AF0F4FD10BD1FB50121022009F08DFE36
:1006700040F2CF20ADF804006420ADF8080000205F
:10068000ADF80A00ADF8060001A9A14809F0A8FFDD
:100690001D208DF8000000208DF8010001208DF84C
:1006A00002008DF80300684608F0ADFC002201212D
:1006B00097480AF00CFB012195480AF0EDFA00205A
:1006C000944908601FBD10B5012191480AF0ADFDA5
:1006D00000283DD090480068B0B99048007898B1A3
:1006E0008F4800688F49096888420DD001208A49E7
:1006F00008608849086032207F4908600846008801
:1007000081B283480AF05EFD82480068012820D14A
:100710000020804908604FF40061784809F019FC16
:1007200077480078012813D17F480078012802D04B
:1007300002280CD105E07A480068401C784908601E
:1007400006E077480068401E7549086000E000BF79
:1007500070E001206F4908607148006871490968BC
:10076000884245D06E4800686E490968884203DDBA
:1007700001206E49088002E002206C4908806B4825
:10078000008870B369480088012812D101025B48D3
:1007900009F0E1FB4FF48061584809F0DAFB4FF4AF
:1007A0000061564809F0D7FB5E480068401C5D496F
:1007B00008605E48008802283CD1C1014F4809F01A
:1007C000C8FB4FF480614D4809F0C3FB4FF4006152
:1007D0004A4809F0C0FB53480068401E5149086070
:1007E00028E0FFE74FF48061444809F0B2FB21E0C4
:1007F00000204E4908804949087047480068012890
:1008000011D10020444908604948007E38B9484861
:10081000407E012803D10220454948760AE00020A5
:100820004349487606E04248407E012802D1022032
:100830003F494876012136480AF008FD10BD1FB532
:100840000121202009F0A1FD4720ADF8040040F26D
:10085000E730ADF808000020ADF80A00ADF806005A
:1008600001A9344809F0BCFE37208DF800000220B1
:100870008DF801008DF8020001208DF80300684614
:1008800008F0C1FB012211462A480AF020FA012192
:1008900028480AF001FA1FBD10B5012125480AF0C9
:1008A000C4FC002878D024480078002875D023485C
:1008B00001680068401C214A1060B1F57A7F6DD351
:1008C0000020114608601E480068401C1C49086052
:1008D000084600684FF4616190FBF1F01949086027
:1008E000174831E00C0000201C00002014000020FC
:1008F0005C00002068000020180000200018014063
:10090000D9000020DA0000206400002094050020B7
:1009100000040040100000202000002015000020EE
:10092000600000206C000020DB000020660000203A
:10093000B0050020001400407E000020840000204C
:10094000880000208C00002000684FF4616190FB5B
:10095000F1F201FB12003C2190FBF1F0AF4908607D
:10096000AF4800684FF4616190FBF1F201FB1200A7
:100970003C2190FBF1F201FB1200AA490860022021
:1009800006F0A7FCA8480078012808D1A7480088ED
:10099000401CA649088005E03FE13AE14EE0002016
:1009A000A2490880A2480078012808D10220A04965
:1009B000087000209F4908809F49088008E09C48F3
:1009C0000078022804D19B480088401C994908807F
:1009D0009A480078012804D199480078401C984929
:1009E000087098480068012806D1022095490860DF
:1009F00000209549086013E09248006802280CD155
:100A000091480068401C9049086008460068C82862
:100A100006D900208B49086002E00020894908605F
:100A20008A480078401C89490870084600780628E2
:100A300004DB00200870012007F06BF9844800886F
:100A4000401C834908807A480078012808D1022098
:100A5000774908700020774908807749088008E0C6
:100A600073480078022804D173480088401C7249FA
:100A700008806D480078012805D176480088401C20
:100A80007449088002E000207249088072480078AA
:100A9000012804D171480088401C704908807048C2
:100AA000007801280AD100206E49088002206C4994
:100AB000087001036C4809F04CFA91E0684800782E
:100AC00002281AD167480088401C664908800846F9
:100AD0000088B0F57A7F05DA4FF40051624809F0DA
:100AE00038FA7DE000205F4908805D4908704FF4C6
:100AF00000515D4809F02FFA72E059480078032848
:100B00000AD1002057490880042055490870C102C5
:100B1000554809F01EFA63E05148007804281AD1BC
:100B200050480088401C4F49088008460088B0F5AE
:100B3000FA7F05DA4FF400514B4809F00AFA4FE00A
:100B4000002048490880464908704FF40051464843
:100B500009F001FA44E04248007805280BD1002052
:100B60004049088006203E4908704FF400513E4835
:100B700009F0EFF934E03A480078062830D13948D6
:100B80000088401C3749088008460088B0F5FA7F85
:100B900005DA4FF40051344809F0DBF920E0314820
:100BA0000088B0F57A7F05DA4FF400512E4809F03D
:100BB000D2F915E02B48008840F2DC51884205DA72
:100BC0004FF40051284809F0C4F909E000202549F4
:100BD0000880234908704FF40051234809F0BBF9FD
:100BE00022480078401C21490870084600782828CF
:100BF0000FDD00201E4908701E480078012808D12A
:100C000000201C490870002240F225511A480AF0C1
:100C1000FCFB012119480AF019FB10BD90000020CF
:100C200088000020940000203500002036000020BD
:100C3000C3000020C4000020C6000020DE00002009
:100C4000DF000020980000209C00002043000020CE
:100C50004400002038000020470000204800002009
:100C60007F00002080000020001001402A000020AA
:100C70002B0000202D00002000380140001400400F
:100C800030B5024600200021032A04D0042A5AD09D
:100C9000082A73D1B9E00023F84C23700323F84CE1
:100CA0002370F84B1B68F84C2360F84B1B6863609B
:100CB000F74B1B68A3600223F64C23606360A360BC
:100CC0001E23F54C23603C236360A360EE4B1B683E
:100CD0000A24B3FBF4F3B3FBF4F504FB1533EF4C38
:100CE0002360E94B1B680A24B3FBF4F504FB1533BE
:100CF000EA4C6360E44B5B680A24B3FBF4F3B3FB98
:100D0000F4F504FB1533E54CA360DF4B5B680A2464
:100D1000B3FBF4F504FB1533E04CE360DA4B9B685E
:100D20000A24B3FBF4F3B3FBF4F504FB1533DB4CFB
:100D30002361D54B9B680A24B3FBF4F504FB153300
:100D4000D64C63617CE10023CC4C23700223CC4C55
:100D50002370D34B1B78012B07D1D24B1B68CA4C95
:100D60002360D14B1B68636006E0D04B1B68C64C08
:100D70002360CF4B1B68636000200BE05FE103231F
:100D8000C44C44F8203040F2E733C34C44F82030E0
:100D9000431CD8B2BA4B1B789842F0DB00202FE0FE
:100DA000B94B53F820306424B3FBF4F30A24B3FBAB
:100DB000F4F504FB153400EB4003B84D45F823402F
:100DC000B14B53F820300A24B3FBF4F3B3FBF4F532
:100DD00004FB153400EB40035B1CB04D45F8234089
:100DE000A94B53F820300A24B3FBF4F504FB153467
:100DF00000EB40039B1CA94D45F82340431CD8B28F
:100E00009F4B1B789842CBDB1AE100239B4C23704D
:100E10000A239B4C2370A74B1B689B4C2360042325
:100E20009C4C236042F20F739B4C2360A14B5B6888
:100E3000954C63600423974C636042F20F73964CA9
:100E400063609C4B9B68904CA3600423914CA3600F
:100E500042F20F73904CA360964BDB688A4CE360C0
:100E600004238C4CE36042F20F738B4CE360914B94
:100E70001B69854C23610423864C236142F20F7366
:100E8000854C23618B4B5B697F4C63610423814CF0
:100E9000636142F20F73804C6361864B9B7E7A4C98
:100EA000A36102237B4CA36110237B4CA361814B84
:100EB000DB69754CE3610223764CE3616323764C76
:100EC000E3617C4B1B6A704C23620223714C2362EA
:100ED0006323714C2362774B93F824306A4C63622E
:100EE00001236C4C63626C4C636200210020A0E023
:100EF000684B53F82030012B0BD1634B53F8203053
:100F00000A24B3FBF4F504FB1533644C44F8213098
:100F100089E0604B53F82030022B19D15A4B53F81B
:100F200020300A24B3FBF4F3B3FBF4F504FB1533D0
:100F30005A4C44F82130544B53F820300A24B3FB68
:100F4000F4F504FB1534554D4B1C45F823406AE07D
:100F5000504B53F82030032B28D14B4B53F8203003
:100F60006424B3FBF4F30A24B3FBF4F504FB153358
:100F70004A4C44F82130444B53F820300A24B3FB48
:100F8000F4F3B3FBF4F504FB1534444D4B1C45F866
:100F900023403D4B53F820300A24B3FBF4F504FB07
:100FA00015343E4D8B1C45F823403CE0394B53F83B
:100FB0002030042B37D1344B53F820304FF47A745F
:100FC000B3FBF4F30A24B3FBF4F504FB1533334C01
:100FD00044F821302C4B53F820306424B3FBF4F355
:100FE0000A24B3FBF4F504FB15342C4D4B1C45F8D7
:100FF0002340254B53F820300A24B3FBF4F3B3FB12
:10100000F4F504FB1534254D8B1C45F823401E4B8D
:1010100053F820300A24B3FBF4F504FB15341F4DBC
:10102000CB1C45F823401B4B53F820301944431C7C
:10103000D8B2134B1B789842FFF65AAF00E000BFBE
:1010400000BF30BD10B51C480078102874D2DFE80E
:1010500000F09C8C7C080E9484376B9C3E4D749CF5
:101060009C5001201549087006F041FD8EE00120DA
:1010700012490870022006F03AFD87E0E4000020E3
:10108000E50000208C000020200C002090000020B3
:1010900094000020E8000020240100205C0C0020C7
:1010A0007D0000209C020020A0020020940200206D
:1010B00098020020CC0500202900002032000020EA
:1010C0000F230C220021032006F06CFF5EE0FA489B
:1010D0000068FA490860FA480068FA49086008465A
:1010E0000168F648006803F0FAFC4FE001F033FDB8
:1010F0004CE00020F4490860F4490860F4490860B5
:10110000F44908600120F4490870F4480068F44983
:101110000861F4480068486105F086F801F0C6FAF5
:101120000320F149087031E0E8480068EF49098878
:101130000844E649086029E027E0E4480068EB49F4
:101140000988401AE149086020E0DF480068E74963
:1011500009880844DC49086018E0DB480068E34976
:101160000988401AD849086010E00120E049087059
:101170000321E04808F0EDFE08E00020DC4908709B
:101180000321DC4808F0E7FE00E000BF00BFDA48BA
:101190000078102812D10020D74908700220D749C2
:1011A0000870D749087007F037FB0020D549087050
:1011B0000120D54908700020D44908700020CE498C
:1011C0000870D3480078012806D002281BD00328D5
:1011D00022D0042838D12CE00020CD490870C34823
:1011E0000088042803D11020C04908800AE0BF48C5
:1011F0000088102803D14020BC49088002E0042068
:10120000BA49088021E00020C14908700A20BC4981
:101210000870BA49087018E00020BD49087008201D
:10122000B7490870B5490870B5480078FFF728FD40
:101230000BE00020B64908700720B1490870AF499B
:10124000087007F0E9FA00E000BF00BF10BD10B55C
:10125000A9480078801F0A285DD2DFE800F04151DC
:101260005C5C1322365C5C050020A34908700920F1
:10127000A3490870A149087003209B49087007F032
:10128000CBFA49E000209C49087003209C49087073
:101290009A4908709A480078FFF7F2FC07F0BCFA08
:1012A0003AE0002094490870042095490870934959
:1012B0000870002097490870974908709048007896
:1012C000FFF7DEFC07F0A8FA26E000208A49087044
:1012D00005208B4908708949087007F09DFA1BE0CA
:1012E0000020854908700B208549087083490870E3
:1012F0000020884908708849087007F08DFA0BE0D3
:1013000000207D49087014207D4908707B490870D1
:1013100007F082FA00BF00BF00BF00207C490870C0
:101320007549087010BD10B5734800780E2809D1B2
:101330000020714908700220714908706F490870D7
:1013400007F06AFA10BD2DE9F047002400270025B8
:10135000A146A046002600BF00BF06E06F4810F877
:1013600024002844C5B2601CC4B26D480078844291
:10137000F4DB2E46282E75D25F480078002871D005
:101380005D4800780E28FAD05B4800781028F6D027
:1013900059480078102873D2DFE800F0FF08E3EC2A
:1013A000F62BC8D1DA4D737B845AFF695D4800780B
:1013B000B04202D100205B4908705B485949097866
:1013C00050F8210009280BD257485649097850F89F
:1013D0002100401C5449534A127841F8220005E08C
:1013E000002051494F4A127841F822004FF002097B
:1013F000D4E04C480078B04202D10020494908703E
:1014000049484849097850F8210058B146484549AB
:10141000097850F82100401E4349424A127841F8A9
:10142000220005E0092040493E4A127841F8220096
:101430004FF00209B2E03B480078002805DD39484A
:101440000078401E3749087001E036490E70A5E06B
:1014500034480078B04206D232480078401C314906
:10146000087003E076E200202E49087096E0002123
:101470002D482C4A127840F822104FF001098DE0D7
:101480008BE001202849274A127841F82200814642
:1014900084E002212448234A127840F822104FF0B9
:1014A00001097BE0032020491E4A127841F82200FE
:1014B0004FF0010972E00000B40000204C00002051
:1014C000B8000020500000205C00002060000020D8
:1014D000680000206C0000207C00002094050020A3
:1014E000CC050020B00500207F0000207A000020FD
:1014F000460000200014014029000020BD0000200B
:10150000BC00002000000020BF0000207D00002063
:1015100028000020DE000020DF000020E80000207E
:10152000E5000020E40000205C0C00200421FE48BF
:10153000FE4A127840F822104FF001092EE00520F3
:10154000F949FA4A127841F822004FF0010925E0E2
:101550000621F548F54A127840F822104FF00109AB
:101560001CE00720F049F14A127841F822004FF0C0
:10157000010913E00820EC49EC4A127841F82200F6
:101580004FF001090AE0FFE70920E749E74A12782E
:1015900041F822004FF0010900E000BF00BFB9F19F
:1015A000000F7DD0E1480078B0427AD1DE4850F893
:1015B0002600DD49086000240025A046002709E038
:1015C000E819D94951F8200008EB880100EB4108DF
:1015D000781CC7B2D64850F82400B842F0D8D54895
:1015E00050F82400404503D3D34840F8248070E1EC
:1015F0004FF00009CE4850F8240001280CD1CE4805
:1016000050F824000A21B0FBF1F201FB1201681E20
:10161000C54A42F820105CE1C54850F82400022871
:101620001AD1C54850F824000A21B0FBF1F0B0FBF4
:10163000F1F201FB1201A81EBB4A42F82010BE487D
:1016400050F824000A21B0FBF1F201FB1201681EE0
:10165000B54A42F820103CE1B54850F82400032870
:101660002CD1B54850F824006421B0FBF1F00A21D8
:10167000B0FBF1F201FB1201E81EAB4A42F8201068
:10168000AD4850F824000A21B0FBF1F0B0FBF1F2B4
:1016900001FB1201A81EA44A42F82010A64801E04E
:1016A0003AE14AE050F824000A21B0FBF1F201FBD4
:1016B0001201681E9C4A42F820100AE19C4850F82A
:1016C0002400042893D19C4850F824004FF47A71E8
:1016D000B0FBF1F00A21B0FBF1F201FB1201281F6F
:1016E000914A42F82010944850F824006421B0FB3D
:1016F000F1F00A21B0FBF1F201FB1201E81E8A4A67
:1017000042F820108C4850F824000A21B0FBF1F078
:10171000B0FBF1F201FB1201A81E834A42F820102F
:10172000854850F824000A21B0FBF1F201FB1201B8
:10173000681E7D4A42F82010CBE000250024C3E05B
:101740004FF00008002709E0E819774951F8200018
:1017500008EB880100EB4108781CC7B2744850F8C8
:101760002400B842F0D8724810F824002844C5B2CA
:10177000704850F82400404503D36F4840F8248057
:10178000A0E04FF000096A4850F8240001280CD16D
:10179000694850F824000A21B0FBF1F201FB120164
:1017A000681E614A42F820108CE0614850F824001D
:1017B00002281AD1604850F824000A21B0FBF1F049
:1017C000B0FBF1F201FB1201A81E574A42F82010AB
:1017D000594850F824000A21B0FBF1F201FB120134
:1017E000681E514A42F820106CE0514850F824001D
:1017F000032829D1504850F824006421B0FBF1F0AF
:101800000A21B0FBF1F201FB1201E81E464A42F840
:101810002010494850F824000A21B0FBF1F0B0FB39
:10182000F1F201FB1201A81E3F4A42F82010424883
:1018300050F824000A21B0FBF1F201FB1201681EEE
:10184000394A42F820103DE0394850F82400042875
:1018500038D1394850F824004FF47A71B0FBF1F0D8
:101860000A21B0FBF1F201FB1201281F2E4A42F8B7
:101870002010314850F824006421B0FBF1F00A2117
:10188000B0FBF1F201FB1201E81E274A42F82010DA
:10189000294850F824000A21B0FBF1F0B0FBF1F226
:1018A00001FB1201A81E204A42F82010224850F8DD
:1018B00024000A21B0FBF1F201FB1201681E1A4A52
:1018C00042F82010601CC4B21C4800788442FFF625
:1018D00037AFB9F1010F15D114480078B04205D2E5
:1018E00012480078401C1149087015E00F48007834
:1018F000B04203D101200D4908700DE000200B49D2
:10190000087009E0B9F1020F06D108480078B0422A
:1019100002D100200549087000200949087006F02E
:101920007BFFB9F1000F0DE05C0C0020E40000200B
:10193000E800002024010020200C0020E500002009
:101940002900002004D04FF000090120BDE8F087F5
:101950000020FBE70020F9E710B5FFF7F4FCA848EA
:1019600000780E2807D10220A6490870A649087001
:1019700006F052FF27E0A2480078102823D1A348A0
:1019800000684FF461614843A0494968C1EB011107
:1019900000EB81009D49896808449D4908609B4887
:1019A00000689C490860994840689B4908609748CE
:1019B00080689A49086001209949087006F02CFF58
:1019C00003209849087000208D49087096490870D6
:1019D00010BD10B594480078012806D0022805D023
:1019E000032804D0042833D102E032E031E030E0B3
:1019F00000208E4908708E480078D0B9834800686E
:101A00008C490860814840688B4908600846016835
:101A10008848006803F063F80120884908700020B6
:101A2000874908800120874908700020864908708E
:101A30000DE000207E4908700321844808F08BFAED
:101A400000207E4908707F49087006F0E5FE00E03E
:101A500000BF00BF0020744908707D4800687D49C0
:101A60000968884219D17C4800687C490968884225
:101A700013D17248007801280FD16D4908700321F5
:101A8000724808F066FA00206C4908700320654926
:101A9000087005F040FF06F0BFFEFFF754FC584801
:101AA00000780E2812D10020614908700321674890
:101AB00008F051FA0020614908706249087002205C
:101AC000504908705049087006F0A6FE00204C49A5
:101AD000087010BD10B501206149087004216148EB
:101AE00008F01DFA50B900BF04215E4808F017FA4B
:101AF0000028F9D001205C49087002E000205A4912
:101B000008705948007801282BD149480078E0B97D
:101B100001204749087003214C4808F01AFA0020B8
:101B200046490870464908805048006841490860A5
:101B30004F4800684049086005F0EDFE012041492A
:101B400008700020404908700BE0002038490870F8
:101B500003213E4808F0FFF9002038490870394950
:101B6000087031480078012806D002280FD00328D9
:101B700018D0042818D116E04FF4FA71080709F0BC
:101B800021FB4FF4FA713B4809F01CFB0DE04FF4C8
:101B90007A71C80609F016FB4FF47A71354809F0DE
:101BA00011FB02E001E000E000BF00BF00201E4981
:101BB0000870134800780E2802D0102817D115E0BD
:101BC00000201B4908700321204808F0C4F90020B8
:101BD0001A490870224908701A49087002200949F8
:101BE00008700949087006F017FE01E000E000BF28
:101BF00000BF00200249087006F00EFE10BD000074
:101C000029000020BC000020BD000020200C002086
:101C1000880000208C00002090000020940000200C
:101C2000BF0000207F00002028000020E4000020EA
:101C3000460000204C0000205000002047000020FB
:101C400048000020DE000020DF00002000140140DA
:101C50005C00002068000020600000206C00002074
:101C6000D900002000100140DC000020A402002068
:101C7000A80200200004004010B5F74800780E28A4
:101C800009D10020F44908700220F4490870F44991
:101C9000087006F0C1FDF3480078012806D002283C
:101CA00025D0032844D0042863D161E0322005F018
:101CB00084FB0020EC4908700220EC4908700620E3
:101CC000E6490870E64908700320E94908700120D8
:101CD000E8490870E84908700020E849087001F0F8
:101CE000E5FB0120E649087006F096FD42E032204F
:101CF00005F063FB0120DC4908700220DB49087015
:101D00000620D6490870D64908700320D8490870C3
:101D10000120D8490870D84908700020D7490870B8
:101D200001F0C4FB0120D649087006F075FD21E0E2
:101D3000322005F042FB0220CB490870CB490870E5
:101D40000620C6490870C64908700320C8490870B3
:101D50000120C8490870C84908700020C7490870A8
:101D600001F0A4FB0120C649087006F055FD01E012
:101D700000E000BF00BF0020BA49087010BD10B5D8
:101D8000B8480078012806D0022826D0032847D07A
:101D9000042869D167E0B4480078E8B9B54800780C
:101DA00068B90320B24908700120B2490870B249ED
:101DB000087001F07BFB322005F0FFFA0CE00520F3
:101DC000AB4908700020AB490870AB49087006F0B9
:101DD00049F9322005F0F1FA47E0A34800780128DC
:101DE0001DD1A448007868B90320A14908700120DA
:101DF000A0490870A049087001F058FB322005F096
:101E0000DCFA0CE005209A49087000209949087016
:101E10009949087006F026F9322005F0CEFA24E040
:101E20009148007802281DD19248007868B90320B3
:101E30008F49087001208F4908708F49087001F0A0
:101E400035FB322005F0B9FA0CE00520884908700E
:101E50000020884908708849087006F003F932208C
:101E600005F0ABFA01E000E000BF00BF00207D49B3
:101E7000087079480078072829D008DC01280DD09F
:101E8000032817D004281BD0052848D10CE00E28C1
:101E900021D00F2833D0102841D13FE001207949CB
:101EA000087006F0B9FC3AE001207749087006F0A6
:101EB000B3FC34E001207549087005F018FE2EE0EF
:101EC000012072490870022005F011FE27E0002071
:101ED00005F01FFF23E0002066490870664908707E
:101EE00005205E4908705E49087006F095FC0020E8
:101EF0006749087067490870674908700FE06748CC
:101F000000686749086067480068674908600846D4
:101F100001686348006802F0E2FD00E000BF00BF16
:101F200000204D49087010BD10B502460021002068
:101F30005E4B1B785B1C5D4C23705D4B1B885D4CBE
:101F400023805D4B33F832305C4C23805A4B03EBDB
:101F5000C2039B885A4C238001235A4C23705A4B4E
:101F60001B6853B9594B93F8A830594C2370574B01
:101F700093F8AC30574C2370F3E0002111E0534B41
:101F8000583333F811304D4C2488A34208D14F4BBD
:101F9000803333F811304A4C2488A34200D104E046
:101FA000491C4A4B5B688B42E9D800BF474B08335A
:101FB00053F82130142B10D2DFE803F00A10171E5B
:101FC000252C333A40478E959CA3A9B0B7BDC4CB0E
:101FD00001233F4C23703F4C2370C1E002233C4C53
:101FE000237001233B4C2370BAE00323384C237049
:101FF0000123384C2370B3E00423354C23700123B4
:10200000344C2370ACE00523314C23700123314C58
:102010002370A5E001232E4C237003232D4C237045
:102020009EE002232A4C237003232A4C237097E05E
:102030000323274C2370274C237091E00423244C66
:1020400023700323234C23708AE00523204C237044
:102050000323204C237083E029000020BC000020D3
:10206000BD000020280000203400002033000020A4
:102070007F000020C2000020C30000207C0100205F
:10208000BE000020C8000020C9000020320000204F
:10209000C10000204700002035000020B4000020CF
:1020A0004C000020B800002050000020CA00002092
:1020B000C4000020CC00002088350020D200002081
:1020C000D4000020D0000020E0000020A407002061
:1020D000CF000020CE0000200123FE4C23700423FB
:1020E000FD4C23703CE00223FA4C23700423FA4C8D
:1020F000237035E00323F74C23700423F64C237040
:102100002EE00423F34C2370F34C237028E00523C6
:10211000F04C23700423F04C237021E00123ED4C9C
:1021200023700223EC4C23701AE00223E94C237045
:10213000E94C237014E00323E64C23700223E64CA1
:1021400023700DE00423E34C23700223E24C237040
:1021500006E00523DF4C23700223DF4C237000BF11
:1021600000BFDE4B1B78DBBB002010E0DC4B53F8DC
:102170002030D94C2478A34208D1D94B503B53F896
:102180002030D44C2478A34200D105E0401CD44B2D
:10219000F43B1B688342E9D800BFD14BF43B1B687A
:1021A00083421ED80124CE4BA03B43F82040CD4BA8
:1021B00053F82140CA4BF03B43F82040C54B1C78F4
:1021C000C74B503B43F82040C34B1C78C44B43F8EB
:1021D0002040F43B1B685B1CC14CF43C23609DE039
:1021E00009E0BF4BA03B53F820305B1CBC4CA03C2B
:1021F00044F8203092E0B94B1B78012B45D10020E8
:1022000010E0B94B53F82030B34C2478A34208D1E6
:10221000B54B503B53F82030AE4C2478A34200D14C
:1022200005E0401CB04BF43B1B688342E9D800BF7B
:10223000AD4BF43B1B6883421DD80124AA4BA03B45
:1022400043F82040A74B53F82140A74BF03B43F8FD
:102250002040A04B1C78A44B503B43F820409E4BA1
:102260001C78A14B43F82040F43B1B685B1C9E4C40
:10227000F43C236052E09C4BA03B53F820305B1CA5
:10228000994CA03C44F8203048E0944B1B78022B3A
:1022900044D1002010E0954B53F820308E4C247828
:1022A000A34208D1914B503B53F82030894C2478FD
:1022B000A34200D105E0401C8C4BF43B1B688342D9
:1022C000E9D800BF894BF43B1B6883421DD8012429
:1022D000864BA03B43F82040824B53F82140834B70
:1022E000F03B43F820407B4B1C78804B503B43F83D
:1022F0002040794B1C787D4B43F82040F43B1B6811
:102300005B1C7A4CF43C236008E0784BA03B53F80C
:1023100020305B1C754CA03C44F8203010BD2DE9EA
:10232000F041002072490870FFF729FD71480078DC
:10233000012834D17048007888BB00206F490870AC
:102340006F480078012807D16E4991F824000022D7
:102350006249097801F013F96748007801281ED115
:1023600005F0C5FB00206849087068490870032122
:10237000674807F0F0FD67480068FFF7D5FD66483D
:102380000088664908606648008866490860084613
:1023900001686248006802F0A2FB05F03DFE564865
:1023A0000078012857D16048006860490968884270
:1023B000F8D15F4800685F4909688842F2D15E48F9
:1023C000407E0028EED15D48407E0028EAD14E488C
:1023D000007870B901204D49087003214C4807F07E
:1023E000B8FD05F0CDFA0120474908700020544996
:1023F0000880454800780128D4D15148008841F22E
:102400008831884227DB43480068401C4149086006
:10241000084600684B49096888421DD200203A49A5
:1024200008703A4908700321394807F094FD39488B
:102430000068FFF779FD3848008838490860384857
:10244000008838490860084601683448006802F08E
:1024500046FB05F0E1FDD6E000202B4908702B4932
:10246000087003212A4807F076FD002022490870F1
:10247000022005F03CFB00203349087000246EE088
:10248000002522E005EB4500304951F82000304995
:1024900051F83410884217D105EB45002B4901EB68
:1024A000800040682A4901EBC401496888420BD189
:1024B00001202849485505EB4500244901EB8000DF
:1024C0008668681C204908706D1C23480068854296
:1024D000D8D343E0CF000020CE00002034000020FD
:1024E00048090020AC0700208C0A0020D00B0020F7
:1024F000DD00002042000020C100002089010020F2
:10250000C2000020CC05002047000020460000202B
:102510000014014078010020D20000204C0000206F
:10252000D4000020500000205C0000206800002043
:10253000600000206C00002094050020B005002001
:102540004800002074010020880100207C32002017
:10255000883500204C35002070010020641C444860
:10256000006884428CD343480788B74204DA07F5F1
:102570008030A0EB060801E0A7EB060800240DE080
:1025800004EB44003C4901EB80008068404404EBCC
:102590004401394A02EB81018860641C37480068B5
:1025A0008442EDD336480078401E00EB40003249AB
:1025B00051F820003349086031480078401E00EB94
:1025C00040002D4901EB800040682E4948602C48AE
:1025D0000078401E00EB4000274901EB8000806836
:1025E000284988600120284908702848006828493F
:1025F000086028480068284908600846016824489F
:10260000006802F06CFA2548007801282DD1244892
:10261000007850BB2348007802280AD1224800885D
:10262000052806DB00201D490870022005F05FFA2E
:102630001BE01C48007801280AD11B4800880828A4
:1026400006DB002015490870022005F050FA0CE066
:102650001448007848B914480088052805DB002094
:102660000E490870022005F042FABDE8F081000032
:1026700074010020C60000207C3200207001002080
:1026800088010020A054002089010020B40000200F
:102690004C000020B8000020500000203500002031
:1026A000C100002034000020360000200020FE4938
:1026B000087040F2B620FD4908604FF4C470FC4930
:1026C0000860F948007868B90020FA490860FA49BA
:1026D0000860FA480068FA490860F8484068F94913
:1026E000086047E0F0480078012812D10020F14945
:1026F0000860EF480068F0490860F0480068F04959
:102700000860EE484068EA490968081AED4908601F
:1027100030E0E5480078022812D1E4480068E54935
:1027200008600020E4490860E4480068DF4909685F
:10273000081AE3490860E1484068E249086019E086
:10274000D9480078032815D1D8480068D9490860CD
:10275000D7480068D8490860D8480068D349096854
:10276000081AD7490860D5484068D1490968081A4D
:10277000D4490860704710B5D348007807281DD0A9
:1027800008DC01283ED003280BD004280FD00528F0
:1027900078D147E0092815D00D2823D01028F7D18B
:1027A00050E00120C949087005F0A1F981E001203D
:1027B000C6490870022005F09AF97AE0002005F079
:1027C000A8FA76E0BD48407E012803DC0420BB491E
:1027D000487604E0B948407E401EB849487606F085
:1027E0001BF866E0B548407E042803DB0120B349AE
:1027F000487604E0B148407E401CB049487606F077
:102800000BF856E0AD48007E012803DC0520AB49FB
:10281000087604E0A948007E401EA849087605F025
:10282000FBFF46E0A548007E052803DB0120A34905
:10283000087604E0A148007E401CA049087605F017
:10284000EBFF36E0002005F064FA03F0EDFCA04851
:102850000078012807D09E480078022803D09C48C1
:10286000007803280FD19548017E99480078401ED2
:10287000984A11549148417E95480078401E964AE6
:10288000115414E014E08D48007E924908708B4882
:10289000007E48708948007E88708848407E8E4956
:1028A00008708648407E48708448407E887000E00A
:1028B00000BF00BF844800780E2853D10020824911
:1028C000087086480078012804D185490870854938
:1028D000087004E00920824908708249087005F0F8
:1028E0009BFF7648007E80490988884206D173485C
:1028F000407E7D49891C0988884230D003F094FCD1
:1029000073480078012807D071480078022803D066
:102910006F48007803280ED16848017E6C48007823
:10292000401E6C4A11546548417E69480078401E3B
:10293000694A115413E06148007E664908705F4897
:10294000007E48705D48007E88705C48407E624929
:1029500008705A48407E48705848407E8870002071
:102960006249087000205849087010BD10B56048D1
:10297000007801280DD100205D49087003F006FDA4
:10298000FFF794FE05205B49087055480078FEF774
:1029900077F9FEF7D8FC4C4800780E2810D14F4844
:1029A0000078012804D14E4908704E49087004E0AF
:1029B00009204B4908704B49087005F02DFF2DE0A8
:1029C00041480078102829D14B4800683B490860ED
:1029D0004948406848604848806888604648C06800
:1029E000C8604548006908614348406948614248F9
:1029F000007E88764048C069C8613F48006A086226
:102A00003D4890F8240081F8240003F00DFCFFF706
:102A10004DFE03203749087005F0FEFE00202A49CC
:102A2000087010BD10B532480078022804D0032881
:102A30000DD0042825D119E000202D4908700A2066
:102A4000274908702749087005F0E6FE1AE00020C3
:102A50002749087008202249087022490870204838
:102A60000078FEF70DF905F0D7FE0BE000202049B5
:102A7000087007201A4908701A49087005F0CCFE42
:102A800000E000BF00BF104800780E2809D10320E5
:102A9000184908700220124908701249087005F0A0
:102AA000BBFE0020124929E0A0000020A400002065
:102AB000A8000020AC000020B0000020CC050020C1
:102AC000B4000020B80000202900002032000020BF
:102AD000020000200300002006000020000000206B
:102AE000BC000020BD0000201CF8070801000020E9
:102AF000280000207F000020200C00200870FD49E5
:102B0000087010BD10B5034600200ABB03F5006431
:102B1000B4F5805F0DDA994203DBA14201DC581A5B
:102B200018E0994201DC581A14E05C1A04F5805050
:102B300010E0A3F500648C4203DC994201DC581AD2
:102B400008E0A3F500648C4203DB5C1AA4F5805016
:102B500000E0581A10BD2DE9F05F0024E648006936
:102B6000E6494861E4484069E5494861E348D0F8EE
:102B700014800846D0F81490002004F035F8DF489F
:102B8000C0F810800068DD4948600B461A7E59681D
:102B90001869FFF7B7FF0446201E01DB014600E07D
:102BA000414203294BDBB4F5007F02DD4FF49674FC
:102BB00003E014F5007F00DAD24C4FF4C85104FB57
:102BC00001F0C11700EB1151CF4A126802EB21311D
:102BD000CD4A116000BFCC480068CC4909688842E2
:102BE000F9D1142004F0E9FB002003F0FDFFC348F5
:102BF0000068801E002801D5002502E0BF4800685B
:102C0000851EBE480068801CB0F5805F02DB40F680
:102C1000FF7602E0B9480068861C201E01DB0146F1
:102C200000E041420A290ADBB4494968A94206DBAF
:102C3000B2494968B14202DCFF20B0490876012060
:102C400003F0D2FFAE48C0F810900068AC4948606D
:102C50000B461A7E59681869FFF754FF0446201E78
:102C600001DB014600E0414203294BDBB4F5007F64
:102C700002DD4FF4967403E014F5007F00DAA14CF6
:102C80004FF4C85104FB01F0C11700EB1151A04AE9
:102C9000126802EB21319E4A116000BF9C48006817
:102CA0009C4909688842F9D1142004F086FB012070
:102CB00003F09AFF92480068801E002801D5002585
:102CC00002E08F480068851E8D480068801CB0F5C2
:102CD000805F02DB40F6FF7602E089480068861CD0
:102CE000201E01DB014600E041420A290ADB84493B
:102CF0004968A94206DB82494968B14202DCFF20EB
:102D00007F4908760027D8E0012F08D108F5967092
:102D10007A49086109F596707949086105E07748B4
:102D2000C0F810807648C0F81090002003F05CFFD7
:102D3000012003F059FF71480068704948607048ED
:102D400000686F4948604FF0000AD3466B4B1A7E0B
:102D500059681869FFF7D6FE0446201E01DB0146BC
:102D600000E04142012912DB201E01DB014600E0A8
:102D700041428A464FF4C85104FB01F0C11700EBF1
:102D80001151614A126802EB21315F4A11605C4BBC
:102D90001A7E59681869FFF7B5FE0446201E01DB4C
:102DA000014600E04142012912DB201E01DB014601
:102DB00000E041428B464FF4C85104FB01F0C117BB
:102DC00000EB1151524A126802EB2131504A116056
:102DD000012F0FDDBAF1000F0CD1BBF1000F09D1AB
:102DE0004D480078401C4C4908700846007803287C
:102DF00003DB65E000204849087000BF42480068D6
:102E0000424909688842F9D1414800684149096846
:102E10008842F3D1502004F0D0FA002003F0E4FE01
:102E2000012003F0E1FEBAF10A0F20DD334800680B
:102E3000801E002801D5002502E030480068851E6C
:102E40002E480068801CB0F5805F02DB40F6FF76FC
:102E500002E02A480068861C28484068A84206DB31
:102E600026484068B04202DCFF2024490876BBF1C6
:102E70000A0F20DD22480068801E002801D50025A9
:102E800002E01F480068851E1D480068801CB0F5E0
:102E9000805F02DB40F6FF7602E019480068861C7E
:102EA00017484068A84206DB15484068B04202DC7B
:102EB000FF2013490876781CC7B2192FFFF624AFFC
:102EC00000BF002010490860114908600F490860E0
:102ED0001049086001201149087003F007FE0748F7
:102EE000007E30B90648007E18B905200C490870EC
:102EF0001BE017E029000020CC05002094050020ED
:102F0000B0050020D4FEFFFF5C0000206800002018
:102F1000600000206C000020600100207C00002088
:102F20007F0000200320FE490870BDE8F09F70B5C7
:102F3000A0B0002500244022FA4910A808F08EFB1A
:102F40004022F8494031684608F088FB10260120ED
:102F5000F54908800020F54908801024F4480078DD
:102F6000012808D1F3480068F3490860F348006875
:102F7000F349086007E0F3480068EF490860F24849
:102F80000068EF49086065E1F0480078012806D044
:102F9000022818D0032827D0042850D14AE0E2485C
:102FA0000088012803D10220DF4908800AE0DE48BA
:102FB0000088022803D10420DB49088002E00120B8
:102FC000D94908803CE0D948008830B90120D74968
:102FD00008800520D249087005E00020D349088008
:102FE0000320CF4908702BE015BB00254FF4FA7081
:102FF00004F0E3F9701EA04201D9641C00E0002433
:1030000010A850F82400D24908605DF82400D14986
:10301000086008460168CE48006801F060FDCC48B1
:103020000068C5490860CB480068C549086000E0F1
:10303000002505E00DB9012500E0002500E000BFF6
:1030400000BF0020C1490870C3480068C34909682F
:1030500088422ED1C2480068C2490968884228D1F6
:10306000C148407E28BBC148407E10BB012D20D105
:103070004FF4FA7004F0A1F9701EA04201D9641C4B
:1030800000E0002410A850F82400B14908605DF861
:103090002400B049086008460168AD48006801F0A6
:1030A0001EFDAB480068A4490860AA480068A4490E
:1030B0000860AF48007811286FD2DFE800F0990966
:1030C0005262632D5A41422E3D3E4A35773C78008C
:1030D00005BB00254FF4FA7004F06FF90CB1641EC3
:1030E00000E0741E10A850F82400994908605DF8AB
:1030F000240098490860084601689548006801F076
:10310000EEFC934800688C490860924800688C493E
:10311000086000E000256CE06BE000208449087046
:1031200003207F49087064E0012081490870052070
:103130007B4908705DE05CE05BE0FFF70CFD58E068
:1031400057E087480068784909880844844908603E
:103150004FE08348006874490988401A8049086034
:1031600047E07D4800687049098808447A4908604A
:103170003FE0794800686C490988401A7649086040
:1031800037E036E07B48007840B901207949087083
:103190000321794806F0DDFE07E029E000207549AB
:1031A00008700321744806F0D6FE22E021E00025D5
:1031B000644800686430714941F82400624800683E
:1031C000643004F1100241F822005A48006800F50A
:1031D0009670C83141F824005848006800F5967090
:1031E00041F8220003F020F805204D49087000E066
:1031F00000BF00BF5E4800780E2820D100205C4947
:10320000087001204949088000205A4908700321AC
:10321000594806F0A0FE0020594908705948007826
:10322000012804D1584908705849087004E0092061
:10323000554908705549087005F0EEFA0BE000207A
:103240004B490870FCF790FF02F000FD02F033FAE2
:1032500005F0E2FA98E600BF20B070BD2DE9F05FFE
:1032600082468B460024142004F0A7F80020484929
:103270000870002501E1002003F0B6FC012003F0F6
:10328000B3FC394800683849486038480068374915
:10329000486000260027344B1A7E59681869FFF7EA
:1032A00031FC0446201E01DB014600E041420229B8
:1032B00012DB201E01DB014600E041420E464FF4C6
:1032C000C85104FB01F0C11700EB1151224A1268EA
:1032D00002EB2131204A1160244B1A7E596818698B
:1032E000FFF710FC0446201E01DB014600E04142CE
:1032F000022912DB201E01DB014600E041420F469D
:103300004FF4C85104FB01F0C11700EB1151144AEE
:10331000126802EB2131124A1160012D46DD39E0BD
:103320007F000020F8C900087A0000207800002003
:103330007D0000209C02002070000020A0020020E0
:103340007400002094020020980200202800002031
:103350004C000020500000205C000020680000208D
:10336000600000206C00002094050020B0050020C3
:10337000290000204600002000140140F405002030
:103380004700002000000020BC000020BD000020FD
:103390006001002056B94FB93D480078401C3C49B7
:1033A000087008460078032803DB69E000203849EC
:1033B000087000BF37480068374909688842F9D16A
:1033C00036480068364909688842F3D1502003F036
:1033D000F4FF002003F008FC012003F005FC0A2E96
:1033E00023DD30480068801E002802D54FF0000819
:1033F00003E02C480068A0F102082A480068801CFD
:10340000B0F5805F02DB40F6FF7903E025480068F5
:1034100000F1020923484068404506DB2148406826
:10342000484502DCFF201F4908760A2F23DD1E488D
:103430000068801E002802D54FF0000803E01A48FB
:103440000068A0F1020818480068801CB0F5805F91
:1034500002DB40F6FF7903E01348006800F102093F
:1034600011484068404506DB0F484068484502DC8B
:10347000FF200D490876681CC5B2192DFFF6FBAE7A
:1034800000BF00200749487607494876BDE8F09F0D
:10349000600100205C000020680000206000002027
:1034A0006C00002094050020B005002010B500201D
:1034B000FE490860FE4908704FF49652FD49FE48E7
:1034C00008F0CCF80020FD4908604FF49652F94905
:1034D000FB4808F0C3F80020FA4908604FF4347242
:1034E000F449F94808F0BAF83C22F249F74808F0E4
:1034F000B5F80020F6490860F6490860A022ED49B9
:10350000F54808F0ABF80020F44908602822E949A2
:10351000F34808F0A3F810BD10B54FF43472E54934
:10352000F04808F09BF84FF43472E249EE4808F096
:1035300095F84FF43472DF49EC4808F08FF85022C8
:10354000DC49EB4808F08AF85022DA49E94808F0EB
:1035500085F85022D749E84808F080F85022D5492C
:10356000E64808F07BF810BD0146302905DD392911
:1035700003DCA1F1300290B200E0002070472DE999
:10358000F74FB8B00020289029902A9025902690D7
:10359000279024902190229023901E901F9020909D
:1035A00000271A9019901890834628210EA808F039
:1035B0006EF8D3480078022803D0D148007802285A
:1035C00006D1389810B90120389001E000203890D9
:1035D000CC480078002841F0F28036903590349045
:1035E000002681464FF49652B249C74808F036F893
:1035F000C648007854287DD10120C54908600020C4
:1036000048600021C2484268083040F82210022475
:10361000E7E0BE48005D3B286DD1BD48006800284A
:103620006AD1369810B901203690D9E00020369042
:1036300009F1010906EB8600B34901EB0010C0F85F
:10364000009006EB8601B04A02EB0112A9F10101DC
:103650004900491C359842F8210006EB8601AA4A28
:1036600002EB0112A9F101014900891C349842F8CA
:103670002100359881B2A6484268583020F81210CF
:10368000349881B2A2484268803020F8121001209C
:103690009F49086008464068401C486000219C48DB
:1036A0004268083040F82210002035903490974945
:1036B000601C085C0D28B8D1A01C085C0A28B4D195
:1036C000E01C085C00283FD09248018806EB860089
:1036D0008D4A02EB0012A9F101004000C01C42F823
:1036E00020108A49E01C085C4E2809D1201D085C86
:1036F000472802E07AE03AE035E001D1761C74E038
:10370000132E1FD28149E01C085C542818D1201DBB
:10371000085C3B2814D1601D085C88B1761C4FF012
:10372000000901207A49086008464068401C48604A
:10373000002177484268083040F82210641D4FE0AD
:10374000761C52E0761C50E07248018806EB860039
:103750006D4A02EB0012A9F101004000C01C42F8C2
:103760002010761C41E000206949086038E0674875
:10377000005D0D2834D06548005D0A2830D06448CB
:103780000068012812D16149085DFFF7EDFE60492C
:103790004A68083151F8221001EB810100EB410128
:1037A0005B484268083040F8221019E0369850B95A
:1037B0005649085DFFF7D8FE359901EB810100EB12
:1037C000410035900CE03698012809D14F49085D39
:1037D000FFF7CAFE349901EB810100EB4100349000
:1037E000641CB4F5006FFFF414AFE9E047490878B2
:1037F000FFF7BAFE4649C1F8A80044498878FFF7A8
:10380000B3FE4349C1F8AC000424D4E03F48005D56
:103810003B284AD1369810B901203690CAE00020E2
:10382000369009F1010906EB8600374901EB0010DB
:10383000C0F8009006EB8601334A02EB0112A9F1B1
:1038400001014900491C359842F8210006EB860128
:103850002D4A02EB0112A9F101014900891C34989B
:1038600042F821000020359034902849601C085C03
:103870000D2869D1A01C085C0A2865D1E01C085CF1
:1038800090B12448018806EB86001F4A02EB001223
:10389000A9F101004000C01C42F820101B49E01CA7
:1038A000085C4E283ED137E053E061E0640100201F
:1038B0006801002078CA0008FC0C00206C01002080
:1038C000BC1F0020700100207C3200204C350020FD
:1038D000740100207801002088350020800100203C
:1038E0002836002010490020E04B0020B04E002078
:1038F00070520020C052002010530020605300205E
:10390000A0000020B402002050360020CC0400208B
:10391000A4070020C6000020201D085C472801D114
:10392000761C4CE0132E12D2FE49201D085C3B2869
:103930000BD1A01D085C3B2807D1E01D085C20B11D
:10394000761C4FF00009A41D34E0761C37E0761C8D
:1039500035E0F548018806EB8600F44A02EB0012D8
:10396000A9F101004000C01C42F82010761C26E09E
:10397000EC48005D0D281DD0EA48005D0A2819D0EA
:10398000369850B9E749085DFFF7EEFD359901EB30
:10399000810100EB410035900CE03698012809D1F7
:1039A000E049085DFFF7E0FD349901EB810100EB90
:1039B00041003490641CB4F5006FFFF427AF00BFE2
:1039C000DB48006832283CD300250CE0D84800686A
:1039D000801E00EB8000D74901EB001050F8250055
:1039E00041F825006D1C142DF0D300250EE0D048C1
:1039F0000068401E00EB8000CE4901EB001050F83B
:103A00002510CC48503040F825106D1C142DEED3F5
:103A10000220C74908600120C7490870C4480468EB
:103A20000DE0002508E0002004EB8401C14A02EB10
:103A3000011141F825006D1C142DF4D3641C3C2C9D
:103A4000EFD300241AE0002510E004EB8400B7490E
:103A500001EB001050F82500B549096801EB810120
:103A6000B44A02EB011141F825006D1C142DECD372
:103A7000AF480068401CAE490860641CB442E2D301
:103A8000AE480068322826D300250CE0AB48006819
:103A9000401E00EB8000AA4901EB001050F8250001
:103AA00041F825006D1C142DF0D30120A3490860B6
:103AB000084604680DE0002508E0002004EB8401BE
:103AC0009F4A02EB011141F825006D1C142DF4D31F
:103AD000641C3C2CEFD3002513E095480068401E81
:103AE00000EB8000934901EB001050F8250093494A
:103AF000096801EB8101924A02EB011141F82500AE
:103B00006D1C142DE9D38D480068401C8B4908605A
:103B1000FFF702FD8B480068E8BB85480068401E3F
:103B200000EB8000834901EB001000783390002403
:103B300039E07F480068401E00EB80007D4901EBC2
:103B400000116000401C51F8200004EB44017E4A43
:103B500042F8210076480068401E00EB800075495D
:103B600001EB00116000801C51F8200004EB4401BF
:103B700002EB810148606E480068401E00EB800047
:103B80006C4901EB001133984000401C51F82000B3
:103B900004EB440100E00DE002EB810188600120AC
:103BA00021A90855641C33988442C2D365493398CF
:103BB0000860F2E35E480068401E00EB80005D494B
:103BC00001EB00100078339059480068401E00EB6C
:103BD000800001EB001133984000401C51F8208018
:103BE000399810BB00241CE004EB4400564901EB5B
:103BF000800080681D901D98404505DD08F58030E7
:103C00001D99401A1C9003E01D98A8EB00001C9021
:103C100043F698211C98884202DD01201EA9085510
:103C2000641C484800688442DED300249AE0399836
:103C3000E0B904EB4400444951F8200004EB44018E
:103C4000424A42F8210004EB44003F4901EB800066
:103C5000406804EB440102EB8101486004EB44003E
:103C6000114601EB8000C0F808807AE004EB4400C4
:103C7000354901EB800080681D901D98404505DDA9
:103C800008F580301D99401A1C9003E01D98A8EBA0
:103C900000001C902E49096A01EB8101480007F0E1
:103CA00072FFCDE904011C9807F05CFF0022294B4C
:103CB000CDE9000107F0DEFECDE90201DDE90423D4
:103CC00007F066FECDE9060107F083FF1B903898E8
:103CD00001280CD104EB44001B4951F820101B981B
:103CE000084404EB4401194A42F821000BE004EBBC
:103CF0004400154951F820101B98081A04EB4401A0
:103D0000124A42F8210004EB44000F4901EB800005
:103D1000406804EB44010D4A02EB8101486004EB6A
:103D2000440019E0CC040020C600002050360020DA
:103D300064010020FC0C0020680100206C010020C0
:103D4000BC1F0020700100207C32002010490020A0
:103D5000CC05002000408F40114601EB8000C0F8E8
:103D60000880641CFE4800688442FFF460AF0024B1
:103D70000AE028A90C5504EB4400FA4951F8200048
:103D8000F94941F82400641CF54800688442F0D3E6
:103D9000F3480068012856D900244FE0002546E08A
:103DA0003898012821D1F04850F825100246681CA7
:103DB00052F82000814239DA104650F825002B9045
:103DC0001146681C51F8200041F82500691C2B9809
:103DD00042F8210028A810F805A028A9681C085C52
:103DE0004855681C01F800A020E0DF4850F8251075
:103DF0000246681C52F82000814217DD104650F838
:103E000025002B901146681C51F8200041F8250030
:103E1000691C2B9842F8210028A810F805A028A9B1
:103E2000681C085C4855681C01F800A06D1CCC4853
:103E30000068401E001BA842B2D8641CC848006835
:103E4000401EA042AAD8002024900024F5E00020C3
:103E50003290C6480068401E00EB8000C44901EB68
:103E600000116000401C51F820003090BF480068ED
:103E7000401E00EB8000BE4901EB00116000801C79
:103E800051F820002F900025B5E00020319028A89F
:103E900010F805A00AEB4A00B64951F820102E91FF
:103EA0000AEB4A00B34901EB800040682D900AEB11
:103EB0004A00AC4951F820002C90AF48006807F048
:103EC00062FECDE90601309A2E99501A07F04AFE9B
:103ED00021F00041CDE90401DDE9062307F0C4FE2D
:103EE00018D2A548006807F04EFECDE906012D9ACC
:103EF0002F99881A07F036FE21F00041CDE9040120
:103F0000DDE9062307F0B0FE04D23198401CC0B2B0
:103F1000319045E09848006807F035FECDE906018C
:103F20002D9A2F99881A07F01DFE21F00041CDE946
:103F30000401DDE9062307F097FE31D2399810B36A
:103F40003898012816D12C9828383099884204DAFC
:103F50003198401CC0B2319022E02E9930988842AE
:103F60001EDD2C99309888421ADA3198401CC0B274
:103F7000319015E02C9828303099814204DA31983C
:103F8000401CC0B231900BE02C993098884207DD7C
:103F90002E993098884203DA3198401CC0B2319093
:103FA000329820BB25A810F80A0000BB3198F0B168
:103FB0001EA810F80A00D0B93298401CC0B2329046
:103FC0000AEB4A016D4A309842F821000AEB4A0197
:103FD00002EB81012F9848600AEB4A00114601EB81
:103FE0008000C0F80880012025A901F80A00329855
:103FF00000B105E06D1C5A4800688542FFF445AFEA
:1040000000BF3298C0B9249901EB41015C4A309855
:1040100042F82100249901EB410102EB81012F9824
:104020004860249800EB4000114601EB8000C0F886
:1040300008802498401C2490641C33988442FFF428
:1040400006AF0024DEE004EB44004C4951F82000A8
:10405000C0B304EB440001EB8000406890B394BB14
:104060003A98012862D104EB4400424951F82000FB
:104070000D9004EB4400414951F820000C90389811
:10408000012804D1DDE90C01401A0B9003E0DDE9C1
:104090000C10401A0B9004EB4400364901EB8000F1
:1040A00081680A9104EB4400344901EB8000806888
:1040B0000990DDE90901884206DBDDE90901401AC2
:1040C000089007E09DE031E0099800F580300A99FA
:1040D000401A0890089807F045FDCDE904010B98B7
:1040E00007F040FD0022274BCDE9000107F050FC0E
:1040F000CDE90201DDE9042307F0BCFCCDE90601AE
:1041000007F067FD0EA941F824001F481F4A0E99C9
:10411000126840F822101D480068401C1B490860C6
:10412000084600680A2801D30020086004EB440018
:10413000124951F8200004EB44010E4A42F82100D4
:1041400004EB44000D4901EB8000406804EB44019E
:1041500002EB8101486004EB4400084918E00000CC
:1041600070010020104900208051002064010020CF
:10417000FC0C00207C32002084010020E04B002059
:10418000B04E002000408F402836002080010020E3
:1041900001EB8000806804EB440102EB8101886040
:1041A000F748005D10B9012021A90855F5480078AD
:1041B00038B3F4480078401EA04222D1F14800787C
:1041C000401E00EB4000F04951F82000EF49086024
:1041D000EC480078401E00EB4000EB4901EB80000A
:1041E0004068EA494860E7480078401E00EB40001C
:1041F000E54901EB80008068E44988600120E449DA
:104200000870641CE34800688442FFF41CAF3998CE
:10421000F0B3E048076800248FE004EB4400DE4977
:1042200051F82000A8BB04EB440001EB800040687B
:1042300078BB3898012807D104EB4400D74951F8DE
:104240002000B0F5FA6F09DC389810BB04EB44008D
:10425000D24951F82000D24988426DDACD48006831
:10426000C01B251A2EE0681C00EB4000C64951F81F
:10427000200005EB4501C44A42F82100681C00EB10
:104280004000114601EB8000406805EB450101E06C
:104290005BE051E002EB81014860681C00EB4000EC
:1042A000114601EB8000806805EB450102EB8101BE
:1042B0008860B349681C085C485521A9681C085CE3
:1042C00048556D1C781EA842CDD8002100EB400057
:1042D000AD4A42F82010781E00EB400002EB80004F
:1042E0004160781E00EB400002EB80008160781E88
:1042F000A34A115421AA11547F1EA248007870B11C
:10430000A0480078401EA04209D100209F490860C3
:10431000486088609B4908709D4908700CE0994886
:10432000007848B197480078401EA04204D99548CB
:104330000078401E93490870641C964800688442C7
:10434000FFF46BAF9348076098E03998F0BB914851
:10435000076800248BE08F480068C01B201A00EB20
:104360004000894901EB800080681D901D98404500
:1043700005DD08F580301D99401A1C9003E01D985A
:10438000A8EB00001C9043F698211C9888426DDD34
:1043900080480068C01B251A2EE0A9E0681C00EBCD
:1043A0004000794951F8200005EB4501764A42F872
:1043B0002100681C00EB4000114601EB80004068C2
:1043C00005EB450102EB8101486000E056E0681C06
:1043D00000EB4000114601EB8000806805EB4501D1
:1043E00002EB810188606649681C085C485521A978
:1043F000681C085C48556D1C781EA842CED8002168
:1044000000EB4000604A42F82010781E00EB4000AC
:1044100002EB80004160781E00EB400002EB800060
:104420008160781E564A115421AA11547F1E5548A6
:10443000007870B153480078401EA04209D1002096
:1044400052490860486088604E49087050490870B9
:104450000CE04C48007848B14A480078401EA04221
:1044600004D948480078401E46490870641C4948F1
:1044700000688442FFF46FAF464807602498B8B3E1
:1044800044480168249808443C2842D8002429E084
:1044900004EB4400434951F820003E490968214497
:1044A00001EB4101384A42F8210004EB44003D4948
:1044B00001EB8000406837490968214401EB410164
:1044C00002EB8101486004EB4400364901EB8000B7
:1044D000806830490968214401EB410102EB810108
:1044E0008860641C24988442D2D32A48046804E07B
:1044F0000FE0012021A90855641C26480168249872
:104500000844A042F5D8234801682498084421496A
:10451000086000201A9000241EE021A8005D0128F8
:1045200019D104EB4400184951F820101E4A1A987A
:1045300042F8201004EB4400134901EB80001B4AB1
:1045400041681A9842F8201019491A9841F82040F9
:104550001A98401C1A90641C0E4800688442DCD3F0
:1045600014480078012866D11A98002863D01248B0
:104570000078012860D14FF0000B002433E00000E8
:104580004C350020880100207C320020A0540020FF
:104590008901002070010020E04B0020104900201C
:1045A00024FAFFFFB04E002070520020C0520020BD
:1045B000B0530020C2000020DD000020FE4850F86B
:1045C0002400FE4941F82B00FD4850F82400FD4925
:1045D00041F82B00FC4850F82400FC4941F82B001E
:1045E0000BF1010B641C1A988442E7D3BBF1000F56
:1045F00021D00120F6490870F648C0F800B000202C
:10460000F5490860002412E0EC4850F82400F34912
:1046100041F83400EB4850F8240001EBC401486035
:10462000EA4850F82400EE4941F82400641CE948A7
:1046300000688442E8D3CDE03A98B8B9E9480078F8
:10464000012810D00120E84908700020E7490860DF
:10465000E74908704FF49652E649E74806F0FEFF36
:10466000322002F0AAFE012003F041FADF48006880
:104670000A287CD34FF0000B00247CE00020189027
:10468000002561E00020199037903EE0D749096885
:10469000891E491B01EB8101D74A02EB01123799B0
:1046A0004900491C52F82110C34A52F82420501ADC
:1046B00007F058FA21F000410022D04BCDE9060165
:1046C00007F0D2FA1ED2C9490968891E491B01EBBD
:1046D0008101C94A02EB011237994900891C52F83D
:1046E0002110B74A52F82420501A07F03BFA21F063
:1046F00000410022C14BCDE9060107F0B5FA01D215
:10470000012019903798401C3790B8480068801EE7
:10471000401B00EB8000B84901EB0010016837989E
:104720008142B3D81998012803D11898401CC0B20F
:1047300018901898022800DB08E0AC480068801E3A
:10474000401B00D102E06D1C052D9BD300BF1898C3
:1047500002280FDB984850F82400984941F82B00B4
:10476000974850F82400974941F82B0000E025E0D5
:104770000BF1010B641C1A988442FFF47FAFBBF16C
:10478000000F27D00120924908709248C0F800B06D
:1047900000209149086000240CE0884850F824006B
:1047A0008E4941F83400874850F8240001EBC401D9
:1047B0004860641C874800688442EED30AE08A4857
:1047C0000078401C8849087008460078032801DDFD
:1047D000002008703BB0BDE8F08F2DE9F04F9BB092
:1047E0008046894614461D46DDE924674FF0000ADD
:1047F000D34600201A901990D6E90010401A16905E
:104800003068A8EB00001590206807F0ABF9CDE9FF
:104810000E01159807F0A6F9CDE90A01169807F0E0
:10482000A1F9CDE90601D4E90021881A07F09AF927
:104830000022734BCDE9020107F0AAF8CDE904018B
:10484000DDE9062307F016F9CDE90801DDE90A23C1
:1048500007F09EF8CDE90C01DDE90E2306F0F1FF2B
:10486000CDE9100107F030FA8346286807F07AF99D
:10487000CDE90E01159807F075F9CDE90A011698F2
:1048800007F070F9CDE90601D5E90021881A07F093
:1048900069F900225A4BCDE9020107F079F8CDE918
:1048A0000401DDE9062307F0E5F8CDE90801DDE9BB
:1048B0000A2307F06DF8CDE90C01DDE90E2306F0BF
:1048C000C0FFCDE9100107F0FFF98246D6E90210DA
:1048D000401A1490A06807F045F9CDE90E0115982B
:1048E00007F040F9CDE90A01149807F03BF9CDE94A
:1048F0000601D4E90221881A07F034F90022404B5E
:10490000CDE9020107F044F8CDE90401DDE9062311
:1049100007F0B0F8CDE90801DDE90A2307F038F81F
:10492000CDE90C01DDE90E2306F08BFFCDE9100186
:1049300007F0CAF91990A86807F014F9CDE90E013B
:10494000159807F00FF9CDE90A01149807F00AF954
:10495000CDE90601D5E90221881A07F003F9002202
:10496000274BCDE9020107F013F8CDE90401DDE999
:10497000062307F07FF8CDE90801DDE90A2307F0F7
:1049800007F8CDE90C01DDE90E2306F05AFFCDE969
:10499000100107F099F91A903868A9EB00001390FC
:1049A0003968B868401A1290584607F04AF9CDE9BC
:1049B0000E01139826E000007052002010530020D2
:1049C000C052002060530020B0530020005400204B
:1049D000C1000020740100207801002088350020EB
:1049E0005054002033000020B40200206401002055
:1049F0006801002078CA0008FC0C00200000084074
:104A00000000F03F07F0AEF8CDE90A01129807F078
:104A1000A9F8CDE906015946199806F09CFE0190C7
:104A200007F00FF90022FE4BCDE9020106F0B0FFBE
:104A3000CDE90401DDE9062307F01CF8CDE9080102
:104A4000DDE90A2306F0A4FFCDE90C01DDE90E2320
:104A500006F0F7FECDE9100107F036F91790504641
:104A600007F0EFF8CDE90E01139807F07BF8CDE9D8
:104A70000A01129807F076F8CDE9060151461A9816
:104A800006F069FE019007F0DCF80022E44BCDE966
:104A9000020106F07DFFCDE90401DDE9062306F001
:104AA000E9FFCDE90801DDE90A2306F071FFCDE950
:104AB0000C01DDE90E2306F0C4FECDE9100107F07C
:104AC00003F91890179807F06BF8D6490860189802
:104AD00007F066F8D44908601BB0BDE8F08F2DE9F7
:104AE000F04F93B004460D46D048006810B1CF484F
:104AF0000068041BCE48006810B1CD480068451B13
:104B0000CC480068A04203D1CB480068A84270D0CE
:104B1000C8480460C8480560C8480088002869D0B3
:104B2000C7480078012818D1002613E0C54850F87E
:104B30002600A0F59670C44941F82600C14806F148
:104B4000100150F82100A0F59670C04941F82600E8
:104B5000701CC6B2102EE9DB17E0002613E0B9483E
:104B6000C83850F826006438B74941F82600B548DF
:104B7000C83806F1100150F821006438B34941F8F3
:104B80002600701CC6B2102EE9DBB1484068A04276
:104B90000BDBB048C069A84207DB00274FF00108D3
:104BA0004FF007094FF0060A98E0A9484068A04274
:104BB0000FDBA848C069A8420BDCA648006AA842DF
:104BC00007DB07274FF006084FF008094FF0090AE6
:104BD00084E09F484068A0420DDB9E48006AA842DE
:104BE00009DC08274FF009084FF00F094FF00E0AB3
:104BF00074E0B2E2D0E096484068A0420FDC9448EE
:104C00008068A0420BDB9348C069A84207DB0127FC
:104C10004FF002084FF006094FF0050A5EE08C489D
:104C20004068A04213DC8A488068A0420FDB8948B4
:104C3000C069A8420BDC8748006AA84207DB062748
:104C40004FF005084FF009094FF00A0A46E0804886
:104C50004068A0420FDC7E488068A0420BDB7D48A4
:104C6000006AA84207DC09274FF00A084FF00E0936
:104C70004FF00D0A32E076488068A0420BDC7548A0
:104C8000C069A84207DB02274FF003084FF005096F
:104C90004FF0040A22E06E488068A0420FDC6D48A5
:104CA000C069A8420BDC6B48006AA84207DB0527F5
:104CB0004FF004084FF00A094FF00B0A0EE0644869
:104CC0008068A0420ADC6348006AA84206DC0A2722
:104CD0004FF00B084FF00D094FF00C0A5C4850F8EC
:104CE00027005D4908605B4850F827005B49086071
:104CF000574850F8280058494860564850F828004E
:104D000056494860524850F8290053498860514834
:104D100050F82900514988604D4850F82A004E4902
:104D2000C8604C4850F82A004C49C860464850F8C2
:104D300027004B490860454850F82700494908605A
:104D4000414850F8280046494860404850F828003B
:104D5000444948603C4850F82900414988603B4834
:104D600050F829003F498860374850F82A003C49EC
:104D7000C860364850F82A003A49C8603748364972
:104D8000384B374ACDE9001029462046FFF725FD6C
:104D900024480468244805682A48F0380068241A22
:104DA0002848F03840682D1A2F480B902F480A9059
:104DB0004CB945B94FF0000B002009902C49C86050
:104DC0002C49C860ABE1002C7ED0002D7CD11D4960
:104DD000F039886806F0C6FECDE90401204606F0E9
:104DE000C1FE00220E4BCDE9000106F0D1FDCDE958
:104DF0000201DDE9042306F03DFECDE9060107F0DE
:104E000093FCCDE90E0100221346DDE90E0106F008
:104E100043FF41D20B9806F014FFCDE902012BE0CD
:104E20000000F03F8C02002090020020AC00002027
:104E3000B00000205400002058000020780000201E
:104E40007D000020BC060020CC0100204C02002088
:104E50008C0100200C020020AC540020CC54002017
:104E6000BC540020DC540020F6C87E44B80E234415
:104E700094050020B0050020DDE90E2306F088FD32
:104E80000022FC4BCDE9040106F0DBFCCDE9060174
:104E900006F09FFE834613E00B9806F0D2FECDE9A4
:104EA0000201DDE90E2306F073FD0022F14BCDE98E
:104EB000040106F067FDCDE9060106F08AFE83468F
:104EC0000A9806F0BEFE00E010E0CDE90401DDE93D
:104ED0000E2306F05DFDCDE9060106F07AFEE649F7
:104EE000C86000200990E549C86018E1002C61D134
:104EF000002D5FD0A3460020DF49C860E0498968E3
:104F0000494304FB041006F02DFECDE9060107F02D
:104F10001BFDCDE91001284606F024FECDE9040171
:104F2000DDE9102306F0A6FDCDE9060107F0FCFB44
:104F3000CDE90C0100221346DDE90C0106F0ACFEC0
:104F400014D20B9806F07DFECDE90201DDE90C23B9
:104F500006F01EFD0022C74BCDE9040106F071FCEE
:104F6000CDE9060106F035FE099013E00B9806F036
:104F700068FECDE90201DDE90C2306F009FD0022FF
:104F8000BC4BCDE9040106F0FDFCCDE9060106F0BD
:104F900020FE09900A9806F054FECDE90401DDE9EF
:104FA0000C2306F0F5FCCDE9060106F012FEB3492C
:104FB000C860B4E0B249886806F0D4FDCDE90401C8
:104FC000204606F0CFFD0022AE4BCDE9000106F0F1
:104FD000DFFCCDE90201DDE9042306F04BFDCDE95C
:104FE000060107F0A1FBCDE90E0100221346DDE921
:104FF0000E0106F051FE14D20B9806F022FECDE908
:105000000201DDE90E2306F0C3FC0022994BCDE935
:10501000040106F016FCCDE9060106F0DAFD834630
:1050200013E00B9806F00DFECDE90201DDE90E2339
:1050300006F0AEFC00228F4BCDE9040106F0A2FC85
:10504000CDE9060106F0C5FD83460A9806F0F9FD94
:10505000CDE90401DDE90E2306F09AFCCDE9060155
:1050600006F0B7FD8449C86085498968494304FB57
:10507000041006F077FDCDE9060107F065FCCDE9E7
:105080001001284606F06EFDCDE90401DDE910238C
:1050900006F0F0FCCDE9060107F046FBCDE90C0176
:1050A00000221346DDE90C0106F0F6FD14D20B9840
:1050B00006F0C7FDCDE90201DDE90C2306F068FC2E
:1050C00000226C4BCDE9040106F0BBFBCDE90601E3
:1050D00006F07FFD099013E00B9806F0B2FDCDE9D4
:1050E0000201DDE90C2306F053FC0022614BCDE9FF
:1050F000040106F047FCCDE9060106F06AFD0990BF
:105100000A9806F09EFDCDE90401DDE90C2306F0C6
:105110003FFCCDE9060106F05CFD5849C8605A48DD
:10512000C0F800B059490998086001205849087032
:1051300058490870524800694F49C96808444E49A7
:1051400008614F4840694D49C96808444B490861A6
:105150000120494948764949487613B0BDE8F08FA7
:105160000FB5A7B0299801682798401A269029986A
:1051700003C8081A2590299881680068081A2490A5
:105180002998C1688068081A23902C9803C8081AC7
:10519000179006F0DEFC1D902A9801682898401AA6
:1051A00022902A9803C8081A21902A9881680068DA
:1051B000081A20902A98C1688068081A1F902D98B4
:1051C00081680068081A179006F0C3FC1B902599A7
:1051D0002398401A21994843219A1F998A1A2599A0
:1051E00001FB1200179006F0B4FC1A9021991F9849
:1051F000401A26994843209A259901FB12022398C8
:10520000411A229800FB11222199249801FB0020C9
:10521000179006F09EFC1990209926984843249AEE
:10522000229901FB1200179006F093FC18900021C0
:105230001A9806F06FFD72D200211D9806F06AFDE3
:105240006FD21A9806F0ACFC1790002801DB179873
:1052500001E01798404240000D9006F083FCCDE934
:1052600010011D9806F09CFC1690002814DB16987F
:1052700014E000000000E03F94050020B00500208D
:10528000CC0500200000F03F5C0000206000002002
:10529000140000201500002016984042099006F0E6
:1052A00061FCCDE90C01199806F0CBFCCDE90801B1
:1052B0004FF08140189906F054FA00901A9906F0C0
:1052C00050FA02901999084606F04BFA019002999B
:1052D00006F0EFF9039006F0B4FCCDE9040107F005
:1052E00033FBCDE90601DDE9082306F0AAFACDE992
:1052F0000A01DDE90C2306F04BFBCDE90E01DDE9E7
:10530000102306F0B7FB0022FE4BCDE9120106F098
:1053100098FACDE9140106F0D7FC1E906DE15BE030
:10532000FFE71A9806F03CFC1790002801DB17985D
:1053300001E01798404240000D9006F013FCCDE9C3
:1053400010011D9806F02CFC1690002801DB169821
:1053500001E016984042099006F004FCCDE90C01EA
:10536000199806F06EFCCDE908014FF081401899BC
:1053700006F0F7F900901A9906F0F3F902901999DE
:10538000084606F0EEF90190029906F092F90390B2
:1053900006F057FCCDE9040107F0D6FACDE9060185
:1053A000DDE9082306F0EEFACDE90A01DDE90C2378
:1053B00006F0EEFACDE90E01DDE9102306F05AFB06
:1053C0000022D04BCDE9120106F03BFACDE91401E1
:1053D00006F07AFC1E9010E100211A9806F090FC6D
:1053E00077D200211D9806F095FC5AD21A9806F043
:1053F000D7FB1790002801DB179801E0179840426F
:1054000040000D9006F0AEFBCDE910011D9806F0AE
:10541000C7FB1690002801DB169801E01698404261
:10542000099006F09FFBCDE90C01199806F009FCE4
:10543000CDE908014FF08140189906F092F90090EB
:105440001A9906F08EF902901999084606F089F922
:105450000190029906F07FF9039006F0F2FBCDE986
:10546000040107F071FACDE90601DDE9082306F031
:10547000E8F9CDE90A01DDE90C2306F089FACDE966
:105480000E01DDE9102306F0F5FA00229D4BCDE96F
:10549000120106F0D6F9CDE9140106F015FC1E90B4
:1054A000ABE01A9806F07CFB1790002801DB1798F8
:1054B00001E01798404240000D9006F053FBCDE903
:1054C00010011D9806F06CFB1690002802DB169860
:1054D00002E042E016984042099006F043FBCDE915
:1054E0000C01199806F0ADFBCDE908014FF08140A1
:1054F000189906F036F900901A9906F032F90290E0
:105500001999084606F02DF90190029906F023F941
:10551000039006F096FBCDE9040107F015FACDE9FA
:105520000601DDE9082306F02DFACDE90A01DDE9DF
:105530000C2306F02DFACDE90E01DDE9102306F06B
:1055400099FA00226F4BCDE9120106F07AF9CDE904
:10555000140106F0B9FB1E904FE0219820BB219961
:105560001F98884220D122992098401A25994843B3
:10557000DDE9221201FB0200159006F0EAFA17900D
:10558000209926984843249A229901FB12001490EE
:1055900006F0DFFA15901D9906F0E3F816901799BA
:1055A00006F011F91E9028E025992398884222D10F
:1055B00021991F9888421ED1209925984843249A02
:1055C000219901FB0200159006F0C3FA179020996B
:1055D00026984843249A229901FB1200149006F061
:1055E000B8FA15901D9906F0BCF81690179906F0B8
:1055F000EAF81E9001E000201E9021991F98401AA1
:105600000D9006F0A6FA0E901E9906F0AAF81090DA
:10561000209806F09EFA0E901D9906F0A2F80F90C1
:10562000109906F046F81290219806F092FA0D9023
:105630001E9906F096F80F90229806F08AFA0D90BF
:105640001D9906F08EF80E900F9906F084F81090D0
:105650001B9906F086F81190129906F0B4F8139091
:1056600006F0EFFA0022274BCDE9140106F0E9F825
:10567000CDE9160106F028FB1C902C9800681590C7
:1056800006F067FA16901E9906F013F8179006F0C8
:1056900087FA1D4908602D980068159006F059FAA0
:1056A00016901C9906F005F8179006F079FA17493C
:1056B00008602BB000BD2DE9F04F97B01448D0F82A
:1056C00008B0144880680B9013480A90BBF1000F93
:1056D00004D10B9810B90024002512E1BBF1000F92
:1056E0004BD00B98002848D10A9806F0AAFACDE9C9
:1056F00004010BEBCB0006F035FA0022074BCDE995
:1057000000010DE00000E03FAC020020B0020020EC
:1057100094050020B0050020CDCCCC420000F03F25
:1057200006F036F9CDE90201DDE9042306F0A2F91D
:10573000FD4AFE4BCDE9060106F02AF90022FC4B9A
:10574000CDE9080106F096F9CDE90E01DDE90E017B
:1057500007F020F9CDE91201F649886806F002FA4F
:10576000CDE90601DDE9122306F012F9CDE90801C1
:1057700006F02FFA04460025C3E0BBF1000F46D126
:105780000B98002843D000240A9806F05AFACDE975
:1057900004010B9901EBC10006F0E4F90022E64B8D
:1057A000CDE9000106F0F4F8CDE90201DDE90423BA
:1057B00006F060F9DC4ADD4BCDE9060106F0E8F8B9
:1057C0000022DB4BCDE9080106F054F9CDE90C01CC
:1057D000DDE90C0107F0DEF8CDE91001D549896853
:1057E000494304FB041006F0BDF9CDE9080107F0B8
:1057F000ABF8CDE91401DDE91023DDE9140106F071
:10580000C7F8CDE9080106F0E4F9054679E00A9801
:1058100006F017FACDE904010BEBCB0006F0A2F974
:105820000022C54BCDE9000106F0B2F8CDE9020136
:10583000DDE9042306F01EF9BB4ABC4BCDE90601A5
:1058400006F0A6F80022BA4BCDE9080106F012F9DD
:10585000CDE90E01DDE90E0107F09CF8CDE912015A
:10586000B449886806F07EF9CDE90601DDE9122326
:1058700006F08EF8CDE9080106F0ABF904460A9867
:1058800006F0DFF9CDE904010B9901EBC10006F048
:1058900069F90022A84BCDE9000106F079F8CDE9BD
:1058A0000201DDE9042306F0E5F89F4A9F4BCDE9AC
:1058B000060106F06DF800229D4BCDE9080106F0C7
:1058C000D9F8CDE90C01DDE90C0107F063F8CDE969
:1058D000100198498968494304FB041006F042F915
:1058E000CDE9080107F030F8CDE91401DDE9102316
:1058F000DDE9140106F04CF8CDE9080106F069F97C
:1059000005468E48006840B18A48006820448B49AB
:105910000968081A8A49086004E08648006820443B
:10592000874908608748006840B182484068284439
:1059300084490968081A8449086004E07D48406881
:1059400028448149086081480078002874D179484A
:10595000006804447748406805447D480088002872
:105960006BD07A48007801281AD1002615E07148DA
:10597000F03050F82600A0F59670764941F82600E0
:105980006C48F03006F1100150F82100A0F5967037
:10599000714941F82600701CC6B2102EE7DB17E0F3
:1059A000002613E06348283050F82600643869491F
:1059B00041F826005F48283006F1100150F8210018
:1059C0006438654941F82600701CC6B2102EE9DB28
:1059D00060484068A0420BDB5F48C069A84207DB13
:1059E00000274FF001084FF007094FF0060A98E032
:1059F00058484068A0420FDB5748C069A8420BDCFA
:105A00005548006AA84207DB07274FF006084FF009
:105A100008094FF0090A84E04E484068A0420DDBB7
:105A20004D48006AA84209DC08274FF009084FF0EA
:105A30000F094FF00E0A74E005E1EEE045484068BA
:105A4000A0420FDC43488068A0420BDB4248C0699B
:105A5000A84207DB01274FF002084FF006094FF07C
:105A6000050A5EE03B484068A04213DC3948806884
:105A7000A0420FDB3848C069A8420BDC3648006AF8
:105A8000A84207DB06274FF005084FF009094FF041
:105A90000A0A46E02F484068A0420FDC2D48806883
:105AA000A0420BDB2C48006AA84207DC09274FF014
:105AB0000A084FF00E094FF00D0A32E025488068C1
:105AC000A0420BDC2448C069A84207DB02274FF044
:105AD00003084FF005094FF0040A22E01D488068D2
